:100000000C946B000C9493000C9493000C94D10509
:100010000C94D1050C94D1050C9493000C9493008E
:100020000C9493000C9493000C9493000C94930004
:100030000C9493000C9493000C9493000C949300F4
:100040000C9459040C9493000C9465030C943F0396
:100050000C9493000C9493000C9493000C949300D4
:100060000C94A3040C9493000000000024002700CB
:100070002A0000000008000201000003040700003D
:100080000000000000000704022205060001031022
:1000900030211312113100000000250028002B0030
:1000A00000000000230026002900040404040404C6
:1000B0000404020202020202030303030303010217
:1000C00004081020408001020408102001020408E6
:1000D0001020E80BDE0B11241FBECFEFD8E0DEBFEF
:1000E000CDBF11E0A0E0B1E0ECE6FAE102C005907E
:1000F0000D92AE33B107D9F723E0AEE3B1E001C012
:100100001D92A339B207E1F710E0CAE6D0E004C0BF
:100110002197FE010E941E0DC936D107C9F70E9422
:10012000FD070C94290D0C940000CF92DF92EF9202
:10013000FF920F931F93CF93DF936C017A018B0192
:10014000C0E0D0E0CE15DF0589F0D8016D918D01BA
:10015000D601ED91FC910190F081E02DC601099549
:10016000892B11F47E0102C02196ECCFC701DF91EB
:10017000CF911F910F91FF90EF90DF90CF90089556
:10018000FC01538D448D252F30E0842F90E0821B9D
:10019000930B541710F0CF96089501970895FC0122
:1001A000918D828D981761F0828DDF01A80FB11DAE
:1001B0005D968C91928D9F5F9F73928F90E00895D2
:1001C0008FEF9FEF0895FC01918D828D981731F08C
:1001D000828DE80FF11D858D90E008958FEF9FEFE0
:1001E0000895FC01918D228D892F90E0805C9F4FB6
:1001F000821B91098F73992708958DE492E00E94E4
:10020000F10021E0892B09F420E0822F0895FC0100
:10021000848DDF01A80FB11DA35ABF4F2C91848D8F
:1002200090E001968F739927848FA689B7892C93C4
:10023000A089B1898C9180648C93938D848D98135F
:1002400006C00288F389E02D80818F7D8083089528
:10025000EF92FF920F931F93CF93DF93EC0181E016
:10026000888F9B8D8C8D981305C0E889F9898081D2
:1002700085FD24C0F62E0B8D10E00F5F1F4F0F730E
:100280001127E02E8C8DE8120CC00FB607FCFACFB8
:10029000E889F989808185FFF5CFCE010E940701A9
:1002A000F1CF8B8DFE01E80FF11DE35AFF4FF08275
:1002B0000B8FEA89FB898081806207C0EE89FF8904
:1002C0006083E889F98980818064808381E090E09F
:1002D000DF91CF911F910F91FF90EF900895CF93F1
:1002E000DF93EC01888D8823C9F0EA89FB8980813E
:1002F00085FD05C0A889B9898C9186FD0FC00FB610
:1003000007FCF5CF808185FFF2CFA889B9898C9150
:1003100085FFEDCFCE010E940701E7CFDF91CF919E
:10032000089580E090E0892B29F00E94FD00811162
:100330000C94000008953FB7F8948091CA01909101
:10034000CB01A091CC01B091CD0126B5A89B05C0F1
:100350002F3F19F00196A11DB11D3FBFBA2FA92F44
:10036000982F8827820F911DA11DB11DBC01CD01C1
:1003700042E0660F771F881F991F4A95D1F70895AD
:1003800085ED8093BC008091BC0084FDFCCF109271
:10039000280208954091A001262F30E0240F311D3E
:1003A00021323105DCF4209128022430C9F4FC010B
:1003B00080E090E0861758F43091A0012191DC0193
:1003C000A258BE4FA30FB11D2C930196F3CF80917D
:1003D000A001680F6093A00180E0089581E0089576
:1003E00082E008950895E091D3018091D201E81749
:1003F00030F4F0E0EC52FE4F808190E008958FEFF2
:100400009FEF08959091D3018091D201981750F4F5
:10041000E92FF0E0EC52FE4F208130E09F5F909397
:10042000D30102C02FEF3FEFC90108958091D2019F
:1004300090E02091D301821B91090895CF92DF9221
:10044000EF92FF920F931F93CF93DF937C01262FA0
:10045000972F8A0180912902882391F0C62FD72FE8
:100460006E01C40ED51ECC15DD0571F06991D70162
:10047000ED91FC910190F081E02DC7010995F3CF3A
:10048000642F822F0E94CA01C801DF91CF911F9172
:100490000F91FF90EF90DF90CF900895CF93DF936F
:1004A0001F92CDB7DEB76983209129022223D1F0B4
:1004B00020914C02203240F021E030E0FC013383F7
:1004C000228380E090E015C080912A02E82FF0E0BE
:1004D000E55DFD4F998190838F5F80932A02809321
:1004E0004C0205C061E0CE0101960E94CA0181E084
:1004F00090E00F90DF91CF9108952091D00130913D
:10050000D1012817390771F49091CE018091CF0164
:10051000981741F0E091CE01F0E0E25CFE4F80815F
:1005200090E008958FEF9FEF089508951F93CF9364
:10053000DF93DC015C962D913C915D97211531058F
:1005400039F481E090E013969C938E9312973DC00E
:100550005196ED91FC91529750969C915097892F0E
:1005600080951FB75E964C915E9741FB772770F997
:1005700041FD6095F8944081772311F0492B01C02B
:1005800048234083E9012197F1F748E0508160FF5B
:1005900002C0592B01C058235083E9012197F1F77C
:1005A0006695415099F7772321F0908189238083C4
:1005B00003C08081982B90831FBF5C968D919C9186
:1005C0005D970197F1F721E030E0C901DF91CF910C
:1005D0001F9108952091D0013091D101281739073A
:1005E00071F48091CF012091CE0190E0805C9F4F0B
:1005F000821B910960E470E00E94F60C089580E08F
:1006000090E008952091D0013091D1012817390749
:10061000B9F49091CE018091CF01981789F0E091C3
:10062000CE01F0E0E25CFE4F80812091CE0130E00F
:100630002F5F3F4F2F7333272093CE0190E0089513
:100640008FEF9FEF0895E091D001F091D101E8176D
:10065000F90769F4A389B4899C91858980958923D8
:100660008C931092D1011092D00181E0089580E026
:100670000895089580E090E008950E94240D1F924F
:100680000F920FB60F9211242F933F934F935F93C6
:100690006F937F938F939F93AF93BF93EF93FF934A
:1006A0008DE492E00E940701FF91EF91BF91AF911D
:1006B0009F918F917F916F915F914F913F912F917A
:1006C0000F900FBE0F901F9018951F920F920FB6AC
:1006D0000F9211242F938F939F93EF93FF93E091A9
:1006E0005D02F0915E028081E0916302F09164020C
:1006F00082FD12C09081809166028F5F8F7320917E
:100700006702821751F0E0916602F0E0E35BFD4F73
:10071000958F8093660201C08081FF91EF919F9138
:100720008F912F910F900FBE0F901F90189590E012
:10073000FC01EE58FF4F3491FC01E254FF4F24912D
:10074000FC01E655FF4FE491EE2309F43BC033234F
:1007500039F1333091F038F43130A9F0323001F50D
:1007600084B58F7D12C0373091F03830A1F034302D
:10077000B9F4809180008F7D03C0809180008F77D5
:10078000809380000DC084B58F7784BD09C08091AF
:10079000B0008F7703C08091B0008F7D8093B00050
:1007A000F0E0EE0FFF1FEA56FF4FA591B4918FB70F
:1007B000F894EC91611103C020952E2301C02E2BDB
:1007C0002C938FBF0895CF93DF9390E0FC01E25408
:1007D000FF4F2491FC01E655FF4F8491882361F17E
:1007E00090E0880F991FFC01E859FF4FC591D49103
:1007F000FC01EA56FF4FA591B491611109C09FB762
:10080000F8948881209582238883EC912E230BC055
:10081000623061F49FB7F8943881822F80958323EA
:100820008883EC912E2B2C939FBF06C08FB7F89432
:10083000E8812E2B28838FBFDF91CF9108958F926F
:100840009F92AF92BF92CF92DF92EF92FF926B0195
:100850007C010E949B014B015C01C114D104E104A5
:10086000F104F1F00E949B01DC01CB018819990988
:10087000AA09BB09883E9340A105B10570F321E0A8
:10088000C21AD108E108F10888EE880E83E0981EAC
:10089000A11CB11CC114D104E104F10419F7DDCF8E
:1008A000FF90EF90DF90CF90BF90AF909F908F9090
:1008B00008951F920F920FB60F9211242F933F931A
:1008C0008F939F93AF93BF938091C6019091C7017F
:1008D000A091C801B091C9013091C50123E0230F57
:1008E0002D3720F40196A11DB11D05C026E8230F68
:1008F0000296A11DB11D2093C5018093C60190935E
:10090000C701A093C801B093C9018091CA01909119
:10091000CB01A091CC01B091CD010196A11DB11DDB
:100920008093CA019093CB01A093CC01B093CD01E9
:10093000BF91AF919F918F913F912F910F900FBEDB
:100940000F901F9018951F920F920FB60F921124BF
:100950002F933F934F935F936F937F938F939F93C7
:10096000AF93BF93EF93FF938091B900887F803658
:1009700009F49CC068F5883209F45BC090F48031BA
:1009800009F454C038F4882309F4F6C0883009F417
:100990004DC0F6C0883109F44CC0803209F45DC006
:1009A000EFC0803409F468C048F4803309F455C0BE
:1009B000883309F0E5C080932602D8C0803509F459
:1009C0004FC0883509F45DC0883409F0D9C0D6C05D
:1009D000883909F4C7C0A8F4883709F467C038F427
:1009E000883609F463C0803709F460C0C9C088380C
:1009F00009F4B8C0803909F45FC0803809F0C0C07C
:100A00005BC0803B09F486C038F4803A09F466C0C4
:100A1000883A09F47FC0B4C0803C09F4A7C0883C80
:100A200009F4A4C0883B09F48AC0AAC080910302DB
:100A300010C09091250280912402981770F5E091E2
:100A4000250281E08E0F80932502F0E0EC5FFD4FE0
:100A500080818093BB0085EC86C0809326028EC087
:100A6000E091250281E08E0F809325028091BB00EA
:100A7000F0E0EC5FFD4F808390912502809124028D
:100A80006EC0E091250281E08E0F80932502809157
:100A9000BB00F0E0EC5FFD4F808380912702811165
:100AA0006DC081E08093020284EA61C083E080939C
:100AB00028021092C401CFCF8091C401803208F087
:100AC00051C0E091C40181E08E0F8093C4018091F8
:100AD000BB00F0E0EC55FE4F8083BDCF85EC8093EA
:100AE000BC00109228028091C401803230F4E09161
:100AF000C401F0E0EC55FE4F10826091C40170E03B
:100B0000E091A201F091A30184EA91E0099510928D
:100B1000C40136C084E0809328021092A101109293
:100B2000A001E0919E01F0919F0109958091A001A3
:100B3000811105C081E08093A00110927E01E091B7
:100B4000A10181E08E0F8093A101F0E0E258FE4FF9
:100B500080818093BB009091A1018091A0019817A2
:100B600008F479CF85E88093BC000AC085EC8093B7
:100B7000BC001092280204C0109226020E94C001FC
:100B8000FF91EF91BF91AF919F918F917F916F9165
:100B90005F914F913F912F910F900FBE0F901F903B
:100BA00018951F920F920FB60F9211242F933F9317
:100BB0004F935F936F937F938F939F93AF93BF9365
:100BC000EF93FF93E091D001F091D101309709F4B8
:100BD00051C0968DA685B785858591FF04C09C91EF
:100BE000892329F447C09C91892309F043C0A38934
:100BF000B4899C918589809589238C93868997896E
:100C00000197F1F7608D718DA685B785558538E020
:100C100020E0CB010197F1F7822F90E09595879521
:100C2000282F4C91452309F02068315091F7868D8B
:100C300081FD20958091CF0190E001968F739927D7
:100C40003091CE01381749F0A091CF01B0E0A25CFD
:100C5000BE4F2C938093CF0103C0868D8160868F19
:100C6000828D938D0197F1F7A389B4899C91858931
:100C7000892B8C93FF91EF91BF91AF919F918F91B1
:100C80007F916F915F914F913F912F910F900FBE88
:100C90000F901F90189520914C0290914B02213299
:100CA00008F04AC0809128028111FCCF32E03093D5
:100CB000280231E0309327023FEF30932602109252
:100CC000250220932402ABE2B2E044E052E0FA01B4
:100CD0003E2F341B321718F43D913193F9CF109207
:100CE000030220910302990F922B9093030290919B
:100CF0000202913061F410920202909103029093EB
:100D0000BB009091BC0093FDF8CF95EC01C095EE2F
:100D10009093BC00909128029230E1F390912602CA
:100D20009F3F79F080912602803241F08091260227
:100D3000803331F084E005C081E003C082E001C06F
:100D400083E010922A0210924C0210922902089518
:100D5000682F8AEE92E00C944E02DF92EF92FF929F
:100D60000F931F93CF93DF93CDB7DEB764970FB682
:100D7000F894DEBF0FBECDBF8C01E12CF12CD12C3D
:100D80008091440390914503DC01ED91FC91008436
:100D9000F185E02D0995892B81F461E070E080E018
:100DA00090E00E941F048FEFE81AF80AA8E8EA16FC
:100DB000A3E1FA0628F38FEF4BC080914403909192
:100DC0004503DC01ED91FC910284F385E02D09954A
:100DD000E1E0F0E0EC0FFD1FED0DF11D8083D1107F
:100DE00003C089818F3E61F6D394B8E0BD1540F60B
:100DF00089818F3E61F58A81813049F54F8128854F
:100E000030E0322F22278985282B8D2D90E0B901E3
:100E1000685F7F4F6817790708F0B2CF2250310919
:100E2000F801408340E0842F90E08217930768F434
:100E3000F801E80FF91FAAE0B0E0AC0FBD1FA80F42
:100E4000B91F8C9181834F5FEECF822F01C08EEF4F
:100E500064960FB6F894DEBF0FBECDBFDF91CF9181
:100E60001F910F91FF90EF90DF9008958F929F92C6
:100E7000AF92BF92EF92FF920F931F93CF93DF93A6
:100E80004B015C018A0179018091440390914503F3
:100E9000DC01ED91FC910190F081E02D6FEE099560
:100EA0008091440390914503DC01ED91FC91019008
:100EB000F081E02D61E00995A0914403B0914503D4
:100EC000ED91FC9111976B2D772788279927019039
:100ED000F081E02DCD010995A0914403B091450327
:100EE000ED91FC911197B501882799270190F08128
:100EF000E02DCD010995A0914403B0914503ED91FA
:100F0000FC91119799278B2D7A2D692D0190F081F5
:100F1000E02DCD0109958091440390914503DC01BA
:100F2000ED91FC910190F081E02D682D0995809163
:100F3000440390914503DC01ED91FC910190F08117
:100F4000E02D61E009958091440390914503C12F04
:100F5000DD27DC01ED91FC910190F081E02D6C2FFB
:100F600009958091440390914503DC01ED91FC913A
:100F70000190F081E02D602F0995C00FD11D2196C1
:100F8000B12C4801B2E08B1A91080B2D10E0809132
:100F90004403909145030815190588F40E0D1F1D93
:100FA000DC01ED91FC910190F081E02DD8016C9174
:100FB0000995F8018081C80FD11DB394E6CFDC01FB
:100FC000ED91FC910190F081E02D6D2F09958091BC
:100FD000440390914503DC01ED91FC910190F08177
:100FE000E02D6C2FDF91CF911F910F91FF90EF902B
:100FF000BF90AF909F908F900994CF93DF93CDB720
:10100000DEB728970FB6F894DEBF0FBECDBF789439
:1010100084B5826084BD84B5816084BD85B58260FD
:1010200085BD85B5816085BD80916E0081608093AE
:101030006E00109281008091810082608093810017
:101040008091810081608093810080918000816027
:10105000809380008091B10084608093B100809182
:10106000B00081608093B00080917A0084608093AA
:101070007A0080917A00826080937A0080917A0071
:10108000816080937A0080917A00806880937A00F2
:101090001092C100E0915D02F0915E0282E08083D7
:1010A000E0915902F0915A021082E0915B02F091B6
:1010B0005C028FEC808310926502E0916102F091F6
:1010C000620286E08083E0915F02F091600280819D
:1010D00080618083E0915F02F0916002808188608E
:1010E0008083E0915F02F09160028081806880835C
:1010F000E0915F02F091600280818F7D808368EED5
:1011000073E080E090E00E941F040091440310917E
:101110004503D8015B961C921E925A9759961C92D1
:101120001E92589757961C921E92569782E490E012
:101130005D969C938E935C971C968C911C97863140
:1011400008F058C02FE030E057963C932E93569706
:1011500020E430E059963C932E93589727E230E0F4
:101160005B963C932E935A9790916800883050F08C
:1011700021E08E3008F420E081E001C0880F2A953C
:10118000EAF701C084E0892B80936800F801948518
:10119000983038F09E3040F0963148F020E030E052
:1011A00008C02DE630E005C02BE630E002C02CE69A
:1011B00030E0D80154963C932E935397983030F4F6
:1011C00081E001C0880F9A95EAF70EC0292F30E020
:1011D0009E3018F42850310902C02E50310981E0A8
:1011E00001C0880F2A95EAF7F801858B848D958DCB
:1011F0000197F1F7D8015A968D919C915B97892BB5
:1012000001F18091D0019091D10180179107C9F02F
:10121000009711F00E942303F801868D8E7F868F40
:101220001092CF011092CE011093D1010093D00102
:101230000388F489E02D9081D80155968C91892BF3
:10124000808380E7898381E78A8382E78B8383E7D2
:101250008C8384E78D8385E78E8386E78F8387E79A
:101260008887F12CEE24E39438E4D32E45E4C42E91
:1012700080917503F81608F07EC08F2D90E0FC0178
:10128000EE0FFF1FEB59FC4F008111810115110575
:1012900009F46FC0E1E0F0E0EC0FFD1FE80FF91F6B
:1012A0008081F801848F1092D3011092D2011092A4
:1012B0002A0210924C0210922802E0922702109209
:1012C000020261E082E10E94970361E083E10E94F3
:1012D00097038091B9008E7F8093B9008091B90007
:1012E0008D7F8093B900D092B800C092BC00D80125
:1012F0005C968C91E092290280934B0210922A0214
:1013000010924C0281E290E00E94A8060E944B06D7
:10131000F801848DE092290280934B0210922A02F8
:1013200010924C0281E890E00E94A8060E944B06B1
:10133000D8015C968C91E092290280934B02109226
:101340002A0210924C028FEE90E00E94A8060E94A2
:101350004B06F801848DE092290280934B02109293
:101360002A0210924C0281EA90E00E94A8060E9494
:101370004B06F3947DCF60E080E10E94E30361E0DF
:1013800080E10E949703AA24AA94BA2C94ED892E96
:1013900091E0992E81E08093F60260914003709174
:1013A0004103809142039091430326EF32E043E0F2
:1013B00050E00E94360786EF92E00E94AD06813031
:1013C00029F08091F602873009F079C08091F70208
:1013D000811175C082E08093F60281E08093F7026C
:1013E00060914003709141038091420390914303C7
:1013F00026EF32E044E050E00E94360786EF92E0AC
:101400000E94AD06813029F08091F602873009F004
:1014100056C08091F702811152C0B0923703A0925A
:101420003603B0923903A09238038BE18093F60221
:1014300081E08093F7021092F8021092F902109264
:10144000FA0283EA8093FB026091400370914103AA
:10145000809142039091430326EF32E048E050E050
:101460000E94360786EF92E00E94AD06813021F09F
:101470008091F602873019F58091F80290E0982F5C
:1014800088272091F902822B9093370380933603AB
:101490002091FA0230E0322F22274091FB02242BC8
:1014A00030933903209338032091F702211107C0AC
:1014B0001816190624F490930102809300026EE13D
:1014C00070E080E090E00E941F04D12C312CCC24ED
:1014D000C394B5EC2B2E30917503D31608F093C04E
:1014E000ED2DF0E0EE0FFF1FEB59FC4F0081118155
:1014F0000115110509F485C0332019F03324339404
:1015000080C03801F6E16F0E711C780120E1E20E17
:10151000F11CF701D30186E001900D928A95E1F765
:10152000D8015C968C91C092290280934B02109254
:101530002A0210924C0280E490E00E94A8060E94C9
:101540004B06F801848D909128029111FCCFC09236
:101550002802C0922702FFEFF09326021092250284
:1015600025E020932402C092030290910302880F89
:10157000892B8093030280910202813069F41092DA
:101580000202809103028093BB008091BC0083FD26
:10159000F8CF2092BC0003C085EE8093BC00809100
:1015A00028028130E1F380912502863018F4809181
:1015B000250201C086E0A4E0B2E0E4EDF1E09E2F58
:1015C0009819981718F49D919193F9CF1092D3011F
:1015D0008093D20123018AEE92E00E940202D70199
:1015E0008D937D01A615B705B1F7045E1F4FF2017B
:1015F00091912F0137978081981380CF4016510623
:10160000B1F7D39468CF332009F48DC040916503BE
:1016100050916603E6E8F0E020E0332309F443C08C
:1016200084919491A92FB0E064E0B595A7956A954F
:10163000E1F7A40FB51F56966C9170E09F7002C041
:10164000759567959A95E2F7162F1170A82FB0E05F
:1016500074E0B595A7957A95E1F7A40FB51F50965C
:101660006C9170E08F70DB0102C0B595A7958A95EB
:10167000E2F7CD0181701817B0F4422F50E0222319
:1016800009F451C08091FE019091FF01FC01EE0F21
:10169000FF1FEA50FE4F5183408301969093FF0154
:1016A0008093FE0140C02F5F3196203109F0B5CF05
:1016B000712C66246394809175037816A0F5E72D4C
:1016C000F0E0EE0FFF1FEB59FC4FC080D180C1143A
:1016D000D10439F1F601848D6092290280934B0286
:1016E00010922A0210924C0260E08AEE92E00E9470
:1016F0004E028601005F1F4F7601D6016C918AEE83
:1017000092E00E944E02B2E0CB0ED11CF701618143
:101710008AEE92E00E944E02C016D10669F70E943E
:101720004B067394C8CF8091FE019091FF010397FF
:101730003CF48091F4019091F5010197B1F520C03E
:101740001092FF011092FE01E6EFF1E0A0E0B1E09F
:101750008D919D91208131812817390729F41182BB
:10176000108280E090E002C081E090E0329621E0BB
:10177000EE3FF20769F79093F5018093F401D9CF1A
:1017800080910002909101021816190674F460917C
:1017900036038DE492E00E9428011092F501109228
:1017A000F401109201021092000262E370E080E006
:1017B00090E00E941F040E949101ECCD80E391E033
:1017C000909347038093460386E493E00C942303AD
:1017D0001092500210924F0288EE93E0A0E0B0E029
:1017E0008093510290935202A0935302B0935402FB
:1017F0002CE031E030934E0220934D0225EC30E096
:1018000030935A022093590224EC30E030935C026A
:1018100020935B0220EC30E030935E0220935D0267
:1018200021EC30E03093600220935F0222EC30E044
:10183000309362022093610226EC30E03093640220
:10184000209363021092660210926702109268025F
:10185000109269021092ED021092EC028093EE0257
:101860009093EF02A093F002B093F1028EE191E029
:101870009093EB028093EA0286E793E090936603ED
:1018800080936503109268031092670310926A03B5
:101890001092690310926C0310926B0310926E0306
:1018A00010926D031092700310926F0310927203E6
:1018B00010927103109274031092730310927503C7
:1018C000E5E6F3E080E021913191232B09F059C046
:1018D00080937503109249031092480388EE93E0B9
:1018E000A0E0B0E080934A0390934B03A0934C0395
:1018F000B0934D0380E391E09093470380934603B8
:1019000010925D0310925C0310925F0310925E03CD
:1019100010926103109260031092630310926203AD
:10192000609164036E7F6D7F609364036695617060
:1019300081E0682783E00E94970361E083E00E94D2
:10194000E303E1ECF0E0E491E0935603EDEAF0E02C
:10195000E491F0E0EE0FFF1FEA56FF4F859194915E
:10196000909358038093570360E082E00E94E30362
:101970008091640381FD0AC061E082E00E949703C8
:1019800005C08F5F883009F09ECFA2CF82E08093A0
:101990005203E0ECF0E0E491E0935303ECEAF0E072
:1019A000E491F0E0EE0FFF1FE056FF4F8591949118
:1019B000909355038093540310923C0310923D037F
:1019C00010923E0310923F038FEF9FEFDC01809354
:1019D000400390934103A0934203B093430386E4F2
:1019E00093E09093450380934403089597FB072E5B
:1019F00016F4009407D077FD09D00E940A0D07FC69
:101A000005D03EF4909581959F4F0895709561950E
:101A10007F4F0895AA1BBB1B51E107C0AA1FBB1F24
:101A2000A617B70710F0A61BB70B881F991F5A956A
:101A3000A9F780959095BC01CD010895EE0FFF1F89
:101A40000590F491E02D099481E090E0F8940C94D5
:101A5000290D10E0CAE6D0E004C0FE010E941E0D70
:0C1A60002196CB36D107C9F7F894FFCFD0
:101A6C0004000100020001000000000028019500A4
:101A7C00C0006F01F100CF00E300000000004E0237
:101A8C001E023A03F20116020202F30100000000EA
:0E1A9C00960295003A039502EA0202037D02CB
:107E0000112484B714BE81FFF0D085E080938100F7
:107E100082E08093C00088E18093C10086E0809377
:107E2000C20080E18093C4008EE0C9D0259A86E02C
:107E300020E33CEF91E0309385002093840096BBD3
:107E4000B09BFECF1D9AA8958150A9F7CC24DD24C4
:107E500088248394B5E0AB2EA1E19A2EF3E0BF2EE7
:107E6000A2D0813461F49FD0082FAFD0023811F036
:107E7000013811F484E001C083E08DD089C08234E0
:107E800011F484E103C0853419F485E0A6D080C0E4
:107E9000853579F488D0E82EFF2485D0082F10E0AE
:107EA000102F00270E291F29000F111F8ED06801E7
:107EB0006FC0863521F484E090D080E0DECF843638
:107EC00009F040C070D06FD0082F6DD080E0C81688
:107ED00080E7D80618F4F601B7BEE895C0E0D1E017
:107EE00062D089930C17E1F7F0E0CF16F0E7DF06D8
:107EF00018F0F601B7BEE89568D007B600FCFDCFD4
:107F0000A601A0E0B1E02C9130E011968C91119780
:107F100090E0982F8827822B932B1296FA010C0160
:107F200087BEE89511244E5F5F4FF1E0A038BF0790
:107F300051F7F601A7BEE89507B600FCFDCF97BE46
:107F4000E89526C08437B1F42ED02DD0F82E2BD052
:107F50003CD0F601EF2C8F010F5F1F4F84911BD097
:107F6000EA94F801C1F70894C11CD11CFA94CF0C13
:107F7000D11C0EC0853739F428D08EE10CD085E9AC
:107F80000AD08FE07ACF813511F488E018D01DD067
:107F900080E101D065CF982F8091C00085FFFCCF94
:107FA0009093C60008958091C00087FFFCCF809118
:107FB000C00084FD01C0A8958091C6000895E0E648
:107FC000F0E098E1908380830895EDDF803219F02E
:107FD00088E0F5DFFFCF84E1DECF1F93182FE3DFCA
:107FE0001150E9F7F2DF1F91089580E0E8DFEE27F6
:047FF000FF270994CA
:027FFE00040479
:0400000300007E007B
:00000001FF
