S014000046696E616C50726F6A6563742E737265634F
S113000004C1000023C1000021C100001FC1000081
S11300101DC100001BC1000019C1000017C1000070
S113002015C1000013C1000011C100000FC1000080
S11300300DC100000BC10000F1C200001CC3000090
S113004047C3000072C300009DC30000C8C3000082
S1130050F3C300001EC4000049C4000074C40000BF
S1130060F5C00000F3C00000F1C00000EFC00000C4
S1130070EDC00000EBC00000E9C00000E7C00000D4
S1130080E5C00000E3C00000E1C00000DFC00000E4
S1130090DDC00000DBC00000D9C00000D7C00000F4
S11300A0D5C00000D3C00000D1C00000CFC0000004
S11300B0CDC00000CBC00000C9C0000033C60000A2
S11300C05EC6000089C60000B4C60000DFC600009A
S11300D00AC7000035C7000060C700008BC70000D6
S11300E0B6C70000B3C00000B1C00000AFC000003C
S11300F0ADC00000ABC00000A9C00000A7C0000054
S1130100A5C00000A3C00000A1C000009FC0000063
S11301109DC000009BC0000099C0000097C0000073
S113012095C0000093C0000091C000008FC0000083
S11301308DC0000035C4000060C400008BC4000002
S1130140B6C40000E1C400000CC5000037C50000BF
S113015062C500008DC50000B8C5000077C000006E
S113016075C0000073C0000071C000006FC00000C3
S11301706DC000006BC0000069C0000067C00000D3
S113018065C0000063C0000061C000005FC00000E3
S11301905DC000005BC0000059C0000057C00000F3
S11301A055C0000053C0000051C000004FC0000003
S11301B07BC70000A6C70000D1C70000FCC7000031
S11301C00C9408090C94350941C000003FC000009C
S11301D03DC000003BC0000039C0000037C0000033
S11301E035C0000033C0000031C000002FC0000043
S11301F02DC000002BC0000029C000005E0F710F4D
S1130200840F970FAA0FBD0FD00F11241FBECFEF7D
S1130210CDBFDFE5DEBF00E00CBF11E2A0E0B0E23D
S1130220ECE0F8E200E00BBF02C007900D92A83D9D
S1130230B107D9F722E2A8EDB1E201C01D92A534BD
S1130240B207E1F70E946E130C940414D9CE04C0D3
S11302506150710981099109611571058105910543
S1130260B9F70895BF92CF92DF92EF92FF920F9366
S11302701F93CF93DF931F92CDB7DEB700E016E054
S11302806894FF24F3F8F801F6826EE070E080E0F1
S113029090E0DDDFF801F5826EE070E080E090E050
S11302A0D6DF0F2EFBE2BF2EF02DB98280EA99E053
S11302B00E941A0EC12CD12C760100E412E42FE026
S11302C030E043E0BE016F5F7F4F80EA99E00E9417
S11302D0490E00E616E0FF24F394F801F682B98291
S11302E0BE016F5F7F4F80EA99E00E94630EF801C0
S11302F0F682E0EAF9E0818185FFFDCF80EA809310
S1130300A009E0EAF9E0818186FFFDCFE0EAF9E0A7
S113031080E481838081BE016F5F7F4F80EA99E032
S11303200E94790E8BE28983BE016F5F7F4F80EA62
S113033099E00E94630E81E080936606E0EAF9E0AA
S1130340818185FFFDCF86EA8093A009E0EAF9E088
S1130350818186FFFDCFE0EAF9E080E4818380813A
S1130360BE016F5F7F4F80EA99E00E94790E8BE2B5
S11303708983BE016F5F7F4F80EA99E00E94630E1C
S113038081E080936606E0EAF9E0818185FFFDCF94
S113039088EC8093A009E0EAF9E0818186FFFDCF33
S11303A0E0EAF9E080E481838081BE016F5F7F4FE2
S11303B080EA99E00E94790E8BE28983BE016F5F27
S11303C07F4F80EA99E00E94630E81E08093660685
S11303D0E0EAF9E0818185FFFDCF82EA8093A009FC
S11303E0E0EAF9E0818186FFFDCFE0EAF9E080E40C
S11303F081838081BE016F5F7F4F80EA99E00E9414
S1130400790E8BE28983BE016F5F7F4F80EA99E0AA
S11304100E94630E81E080936606E0EAF9E0818140
S113042085FFFDCF8FE28093A009E0EAF9E08181A6
S113043086FFFDCFE0EAF9E080E481838081BE019C
S11304406F5F7F4F80EA99E00E94790E8BE2898387
S1130450BE016F5F7F4F80EA99E00E94630E81E0E6
S113046080936606E0EAF9E0818185FFFDCF88EF9D
S11304708093A009E0EAF9E0818186FFFDCFE0EAFC
S1130480F9E080E481838081BE016F5F7F4F80EA61
S113049099E00E94790E8BE28983BE016F5F7F4FE2
S11304A080EA99E00E94630E81E080936606E0EAA8
S11304B0F9E0818185FFFDCF1092A009E0EAF9E01F
S11304C0818186FFFDCFE0EAF9E080E481838081C9
S11304D0BE016F5F7F4F80EA99E00E94790E8BE244
S11304E08983BE016F5F7F4F80EA99E00E94630EAB
S11304F081E080936606E0EAF9E0818185FFFDCF23
S113050081E28093A009E0EAF9E0818186FFFDCFD2
S1130510E0EAF9E080E481838081BE016F5F7F4F70
S113052080EA99E00E94790E8BE28983BE016F5FB5
S11305307F4F80EA99E00E94630E81E08093660613
S1130540E0EAF9E0818185FFFDCF81E88093A0098D
S1130550E0EAF9E0818186FFFDCFE0EAF9E080E49A
S113056081838081BE016F5F7F4F80EA99E00E94A2
S1130570790E8BE28983BE016F5F7F4F80EA99E039
S11305800E94630E81E080936606E0EAF9E08181CF
S113059085FFFDCF81E28093A009E0EAF9E0818143
S11305A086FFFDCFE0EAF9E080E481838081BE012B
S11305B06F5F7F4F80EA99E00E94790E8BE2898316
S11305C0BE016F5F7F4F80EA99E00E94630E81E075
S11305D080936606E0EAF9E0818185FFFDCF8FEA2A
S11305E08093A009E0EAF9E0818186FFFDCFE0EA8B
S11305F0F9E080E481838081BE016F5F7F4F80EAF0
S113060099E00E94790E0F90DF91CF911F910F9185
S1130610FF90EF90DF90CF90BF9008951F920F92BC
S11306200FB60F9211240BB60F922F933F934F9353
S11306305F936F937F938F939F93AF93BF93EF9346
S1130640FF93E0911E22F0911F22309709F0199533
S1130650FF91EF91BF91AF919F918F917F916F9196
S11306605F914F913F912F910F900BBE0F900FBE52
S11306700F901F9018951F920F920FB60F9211248E
S11306800BB60F922F933F934F935F936F937F9388
S11306908F939F93AF93BF93EF93FF93E0911C22AB
S11306A0F0911D22309709F01995FF91EF91BF91B8
S11306B0AF919F918F917F916F915F914F913F91F6
S11306C02F910F900BBE0F900FBE0F901F90189597
S11306D01F920F920FB60F9211240BB60F922F9305
S11306E03F934F935F936F937F938F939F93AF93B6
S11306F0BF93EF93FF93E0911A22F0911B2230975E
S113070009F01995FF91EF91BF91AF919F918F914E
S11307107F916F915F914F913F912F910F900BBEFD
S11307200F900FBE0F901F9018951F920F920FB647
S11307300F9211240BB60F922F933F934F935F9315
S11307406F937F938F939F93AF93BF93EF93FF9395
S1130750E0911822F0911922309709F01995FF9130
S1130760EF91BF91AF919F918F917F916F915F9125
S11307704F913F912F910F900BBE0F900FBE0F9092
S11307801F9018951F920F920FB60F9211240BB65B
S11307900F922F933F934F935F936F937F938F9316
S11307A09F93AF93BF93EF93FF93E0911622F09141
S11307B01722309709F01995FF91EF91BF91AF91EE
S11307C09F918F917F916F915F914F913F912F9165
S11307D00F900BBE0F900FBE0F901F9018951F9295
S11307E00F920FB60F9211240BB60F922F933F93D3
S11307F04F935F936F937F938F939F93AF93BF9325
S1130800EF93FF93E0911422F0911522309709F0B1
S11308101995FF91EF91BF91AF919F918F917F9126
S11308206F915F914F913F912F910F900BBE0F905D
S11308300FBE0F901F9018951F920F920FB60F9234
S113084011240BB60F922F933F934F935F936F93A3
S11308507F938F939F93AF93BF93EF93FF93E09115
S11308601222F0911322309709F01995FF91EF911C
S1130870BF91AF919F918F917F916F915F914F91B4
S11308803F912F910F900BBE0F900FBE0F901F90B2
S113089018951F920F920FB60F9211240BB60F9258
S11308A02F933F934F935F936F937F938F939F9374
S11308B0AF93BF93EF93FF93E0911022F091112235
S11308C0309709F01995FF91EF91BF91AF919F91E6
S11308D08F917F916F915F914F913F912F910F90E5
S11308E00BBE0F900FBE0F901F9018951F920F9282
S11308F00FB60F9211240BB60F922F933F934F9381
S11309005F936F937F938F939F93AF93BF93EF9373
S1130910FF93E0910E22F0910F22309709F0199580
S1130920FF91EF91BF91AF919F918F917F916F91C3
S11309305F914F913F912F910F900BBE0F900FBE7F
S11309400F901F9018951F920F920FB60F921124BB
S11309500BB60F922F933F934F935F936F937F93B5
S11309608F939F93AF93BF93EF93FF93E0910C22E8
S1130970F0910D22309709F01995FF91EF91BF91F5
S1130980AF919F918F917F916F915F914F913F9123
S11309902F910F900BBE0F900FBE0F901F901895C4
S11309A01F920F920FB60F9211240BB60F922F9332
S11309B03F934F935F936F937F938F939F93AF93E3
S11309C0BF93EF93FF93E0910A22F0910B223097AB
S11309D009F01995FF91EF91BF91AF919F918F917C
S11309E07F916F915F914F913F912F910F900BBE2B
S11309F00F900FBE0F901F9018951F920F920FB675
S1130A000F9211240BB60F922F933F934F935F9342
S1130A106F937F938F939F93AF93BF93EF93FF93C2
S1130A20E0910822F0910922309709F01995FF917D
S1130A30EF91BF91AF919F918F917F916F915F9152
S1130A404F913F912F910F900BBE0F900FBE0F90BF
S1130A501F9018951F920F920FB60F9211240BB688
S1130A600F922F933F934F935F936F937F938F9343
S1130A709F93AF93BF93EF93FF93E0910622F0917E
S1130A800722309709F01995FF91EF91BF91AF912B
S1130A909F918F917F916F915F914F913F912F9192
S1130AA00F900BBE0F900FBE0F901F9018951F92C2
S1130AB00F920FB60F9211240BB60F922F933F9300
S1130AC04F935F936F937F938F939F93AF93BF9352
S1130AD0EF93FF93E0910422F0910522309709F0FF
S1130AE01995FF91EF91BF91AF919F918F917F9154
S1130AF06F915F914F913F912F910F900BBE0F908B
S1130B000FBE0F901F9018951F920F920FB60F9261
S1130B1011240BB60F922F933F934F935F936F93D0
S1130B207F938F939F93AF93BF93EF93FF93E09142
S1130B300222F0910322309709F01995FF91EF9169
S1130B40BF91AF919F918F917F916F915F914F91E1
S1130B503F912F910F900BBE0F900FBE0F901F90DF
S1130B6018951F920F920FB60F9211240BB60F9285
S1130B702F933F934F935F936F937F938F939F93A1
S1130B80AF93BF93EF93FF93E0910022F091012282
S1130B90309709F01995FF91EF91BF91AF919F9113
S1130BA08F917F916F915F914F913F912F910F9012
S1130BB00BBE0F900FBE0F901F9018951F920F92AF
S1130BC00FB60F9211240BB60F922F933F934F93AE
S1130BD05F936F937F938F939F93AF93BF93EF93A1
S1130BE0FF93E091FE21F091FF21309709F01995D0
S1130BF0FF91EF91BF91AF919F918F917F916F91F1
S1130C005F914F913F912F910F900BBE0F900FBEAC
S1130C100F901F9018951F920F920FB60F921124E8
S1130C200BB60F922F933F934F935F936F937F93E2
S1130C308F939F93AF93BF93EF93FF93E091FC2126
S1130C40F091FD21309709F01995FF91EF91BF9133
S1130C50AF919F918F917F916F915F914F913F9150
S1130C602F910F900BBE0F900FBE0F901F901895F1
S1130C701F920F920FB60F9211240BB60F922F935F
S1130C803F934F935F936F937F938F939F93AF9310
S1130C90BF93EF93FF93E091FA21F091FB213097FA
S1130CA009F01995FF91EF91BF91AF919F918F91A9
S1130CB07F916F915F914F913F912F910F900BBE58
S1130CC00F900FBE0F901F9018951F920F920FB6A2
S1130CD00F9211240BB60F922F933F934F935F9370
S1130CE06F937F938F939F93AF93BF93EF93FF93F0
S1130CF0E091F821F091F921309709F01995FF91CD
S1130D00EF91BF91AF919F918F917F916F915F917F
S1130D104F913F912F910F900BBE0F900FBE0F90EC
S1130D201F9018951F920F920FB60F9211240BB6B5
S1130D300F922F933F934F935F936F937F938F9370
S1130D409F93AF93BF93EF93FF93E091F621F091BC
S1130D50F721309709F01995FF91EF91BF91AF9169
S1130D609F918F917F916F915F914F913F912F91BF
S1130D700F900BBE0F900FBE0F901F9018951F92EF
S1130D800F920FB60F9211240BB60F922F933F932D
S1130D904F935F936F937F938F939F93AF93BF937F
S1130DA0EF93FF93E091F421F091F521309709F04E
S1130DB01995FF91EF91BF91AF919F918F917F9181
S1130DC06F915F914F913F912F910F900BBE0F90B8
S1130DD00FBE0F901F9018951F920F920FB60F928F
S1130DE011240BB60F922F933F934F935F936F93FE
S1130DF07F938F939F93AF93BF93EF93FF93E09170
S1130E00F221F091F321309709F01995FF91EF91B8
S1130E10BF91AF919F918F917F916F915F914F910E
S1130E203F912F910F900BBE0F900FBE0F901F900C
S1130E3018951F920F920FB60F9211240BB60F92B2
S1130E402F933F934F935F936F937F938F939F93CE
S1130E50AF93BF93EF93FF93E091F021F091F121D1
S1130E60309709F01995FF91EF91BF91AF919F9140
S1130E708F917F916F915F914F913F912F910F903F
S1130E800BBE0F900FBE0F901F9018951F920F92DC
S1130E900FB60F9211240BB60F922F933F934F93DB
S1130EA05F936F937F938F939F93AF93BF93EF93CE
S1130EB0FF93E091EE21F091EF21309709F019951D
S1130EC0FF91EF91BF91AF919F918F917F916F911E
S1130ED05F914F913F912F910F900BBE0F900FBEDA
S1130EE00F901F9018951F920F920FB60F92112416
S1130EF00BB60F922F933F934F935F936F937F9310
S1130F008F939F93AF93BF93EF93FF93E091EC2163
S1130F10F091ED21309709F01995FF91EF91BF9170
S1130F20AF919F918F917F916F915F914F913F917D
S1130F302F910F900BBE0F900FBE0F901F9018951E
S1130F401F920F920FB60F9211240BB60F922F938C
S1130F503F934F935F936F937F938F939F93AF933D
S1130F60BF93EF93FF93E091EA21F091EB21309747
S1130F7009F01995FF91EF91BF91AF919F918F91D6
S1130F807F916F915F914F913F912F910F900BBE85
S1130F900F900FBE0F901F9018951F920F920FB6CF
S1130FA00F9211240BB60F922F933F934F935F939D
S1130FB06F937F938F939F93AF93BF93EF93FF931D
S1130FC0E091E821F091E921309709F01995FF911A
S1130FD0EF91BF91AF919F918F917F916F915F91AD
S1130FE04F913F912F910F900BBE0F900FBE0F901A
S1130FF01F9018951F920F920FB60F9211240BB6E3
S11310000F922F933F934F935F936F937F938F939D
S11310109F93AF93BF93EF93FF93E091E621F091F9
S1131020E721309709F01995FF91EF91BF91AF91A6
S11310309F918F917F916F915F914F913F912F91EC
S11310400F900BBE0F900FBE0F901F9018951F921C
S11310500F920FB60F9211240BB60F922F933F935A
S11310604F935F936F937F938F939F93AF93BF93AC
S1131070EF93FF93E091E421F091E521309709F09B
S11310801995FF91EF91BF91AF919F918F917F91AE
S11310906F915F914F913F912F910F900BBE0F90E5
S11310A00FBE0F901F9018951F920F920FB60F92BC
S11310B011240BB60F922F933F934F935F936F932B
S11310C07F938F939F93AF93BF93EF93FF93E0919D
S11310D0E221F091E321309709F01995FF91EF9106
S11310E0BF91AF919F918F917F916F915F914F913C
S11310F03F912F910F900BBE0F900FBE0F901F903A
S113110018951F920F920FB60F9211240BB60F92DF
S11311102F933F934F935F936F937F938F939F93FB
S1131120AF93BF93EF93FF93E091E021F091E1211E
S1131130309709F01995FF91EF91BF91AF919F916D
S11311408F917F916F915F914F913F912F910F906C
S11311500BBE0F900FBE0F901F9018951F920F9209
S11311600FB60F9211240BB60F922F933F934F9308
S11311705F936F937F938F939F93AF93BF93EF93FB
S1131180FF93E091DE21F091DF21309709F019956A
S1131190FF91EF91BF91AF919F918F917F916F914B
S11311A05F914F913F912F910F900BBE0F900FBE07
S11311B00F901F9018951F920F920FB60F92112443
S11311C00BB60F922F933F934F935F936F937F933D
S11311D08F939F93AF93BF93EF93FF93E091DC21A1
S11311E0F091DD21309709F01995FF91EF91BF91AE
S11311F0AF919F918F917F916F915F914F913F91AB
S11312002F910F900BBE0F900FBE0F901F9018954B
S11312101F920F920FB60F9211240BB60F922F93B9
S11312203F934F935F936F937F938F939F93AF936A
S1131230BF93EF93FF93E091DA21F091DB21309794
S113124009F01995FF91EF91BF91AF919F918F9103
S11312507F916F915F914F913F912F910F900BBEB2
S11312600F900FBE0F901F9018951F920F920FB6FC
S11312700F9211240BB60F922F933F934F935F93CA
S11312806F937F938F939F93AF93BF93EF93FF934A
S1131290E091D821F091D921309709F01995FF9167
S11312A0EF91BF91AF919F918F917F916F915F91DA
S11312B04F913F912F910F900BBE0F900FBE0F9047
S11312C01F9018951F93CF93DF931F921F92CDB752
S11312D0DEB72FB72A83F8941A81282F392F2115C6
S11312E088E0380739F461E083E052D564E083E0B4
S11312F04FD543C0203488E0380739F462E083E0F6
S113130047D564E083E044D538C0211589E0380727
S113131039F461E084E03CD564E084E039D52DC043
S1131320203489E0380739F462E084E031D564E0A0
S113133084E02ED522C021158AE0380739F461E013
S113134085E026D564E085E023D517C020348AE003
S1131350380739F462E085E01BD564E085E018D5F0
S11313600CC021153B4039F461E086E011D564E0FE
S113137086E00ED502C01FBF10C0809122228F3F8D
S113138009F4FFCF8FB78983F8949981E1E2F2E2FF
S113139081818F5F81839FBF1FBF0F900F90DF916B
S11313A0CF911F910895FC01918195FFFDCF60833A
S11313B080E090E00895FC0191819923ECF780810D
S11313C008954F925F926F927F928F929F92AF9205
S11313D0BF92EF92FF920F931F93CF937C014A0128
S11313E05B0128013901FC01848182FF16C0D90107
S11313F0C801689412F8B695A795979587951694A1
S1131400D1F7B901A801032E36E176956795579572
S113141047953A95D1F7302D15C0D901C801689484
S113142013F8B695A795979587951694D1F7B901B2
S1131430A801032E37E176956795579547953A9518
S1131440D1F7302D88159905AA05BB0508F4A6C067
S113145084169506A606B70608F4A2C0F70184818F
S113146082FD04C0880C991CAA1CBB1CC301B201D8
S1131470A50194010E94CB132F3F3105410551056D
S113148008F490C08FEF90E0A0E0B0E0C9EF05C091
S1131490281739074A075B0758F0880F991FAA1FB6
S11314A0BB1FCD3F0CF48160CF5FC73089F74FC0BD
S11314B0CC230CF04CC0D501C401880F991FAA1F7E
S11314C0BB1F880F991FAA1FBB1F880F991FAA1F34
S11314D0BB1F481A590A6A0A7B0ACE3FF4F48DEFFF
S11314E09FEF8C1B9109C7FD939504C0440C551CB8
S11314F0661C771C8A95D2F7D501C401B695A795C9
S113150097958795BC01CD01640D751D861D971DAA
S1131510A50194010E94CB1337C083E08C0FA50171
S1131520940104C0220F331F441F551F8A95D2F71C
S1131530DA01C901B695A79597958795BC01CD01A8
S1131540640D751D861D971D0E94CB131DC083E07D
S11315508C0FA501940104C0220F331F441F551F93
S11315608A95D2F7DA01C901B695A795979587951B
S1131570BC01CD01640D751D861D971D0E94CB1302
S11315802150310941095109832F8F70C295C07FC1
S1131590C82BF701C783268381E018C080E016C0FA
S11315A080E014C0D501C401880F991FAA1FBB1F76
S11315B0880F991FAA1FBB1F880F991FAA1FBB1F43
S11315C0481A590A6A0A7B0AC9EF89CFCF911F9139
S11315D00F91FF90EF90BF90AF909F908F907F906E
S11315E06F905F904F9008950F931F93CF93DF9365
S11315F0EC018B01009709F4E6C0803C910521F4CD
S113160060E180E0C5D3DFC0C03881E0D80721F4B1
S113161062E080E0BDD3D7C0C115E1E0DE0721F46C
S113162061E080E0B5D3CFC0C038F3E0DF0721F438
S113163061E081E0ADD3C7C0C03983E0D80721F4AD
S113164061E082E0A5D3BFC0C115E2E0DE0721F46A
S113165062E081E09DD3B7C0C034F2E0DF0721F43B
S113166062E082E095D3AFC0C03283E0D80721F4B2
S113167064E082E08DD3A7C0C115E8E0DE0721F461
S113168061E083E085D39FC0C115F9E0DF0721F451
S113169061E084E07DD397C0C1158AE0D80721F4C6
S11316A061E085E075D38FC0C115EBE0DE0721F45E
S11316B061E086E06DD387C0C034F8E0DF0721F431
S11316C062E083E065D37FC0C03489E0D80721F4A9
S11316D062E084E05DD377C0C034EAE0DE0721F441
S11316E062E085E055D36FC0C039F8E0DF0721F42C
S11316F064E083E04DD367C0C03989E0D80721F4A2
S113170064E084E045D35FC0C039EAE0DE0721F439
S113171064E085E03DD357C0C039FBE0DF0721F426
S113172064E086E035D34FC0C03C88E0D80721F49C
S113173068E083E02DD347C0C03CE9E0DE0721F434
S113174068E084E025D33FC0C03AF8E0DF0721F425
S113175060E183E01DD337C0C03A89E0D80721F4A3
S113176060E184E015D32FC0C03AEAE0DE0721F43B
S113177060E185E00DD327C0C03AFBE0DF0721F428
S113178060E186E005D31FC0C03B88E0D80721F4A0
S113179060E283E0FDD217C0C03BE9E0DE0721F43C
S11317A060E284E0F5D20FC0C038F4E0DF0721F432
S11317B060E483E0EDD207C0C03A84E0D80719F4AE
S11317C060E485E0E5D28D818F738D83F801958186
S11317D08481892B9681911198E0892B8D83F8015E
S11317E0408151816281738100E012E12AE730E097
S11317F0CE01E7DD9C8198609C839C8190619C83F1
S1131800DF91CF911F910F910895CF92DF92EF92C4
S1131810FF920F931F93CF93DF93EC01D901C8017B
S1131820B695A79597958795481759076A077B0733
S113183070F46A017B01CC0CDD1CEE1CFF1CC90199
S1131840B801A7019601A7D72150310902C020E0B1
S113185030E0832F8F708F832E83DF91CF911F9180
S11318600F91FF90EF90DF90CF900895DF92EF9269
S1131870FF920F931F93CF93DF931F92CDB7DEB7E1
S11318807C018B01009709F4B2C1803C910521F4DD
S113189060E180E07DD2ABC180E8E81681E0F80623
S11318A021F462E080E074D2A2C1E114E1E0FE061A
S11318B021F461E080E06CD29AC1F0E8EF16F3E025
S11318C0FF0621F461E081E063D291C130E9E316BF
S11318D033E0F30621F461E082E05AD288C1E114D6
S11318E082E0F80621F462E081E052D280C1E0E4B3
S11318F0EE16E2E0FE0621F462E082E049D277C10E
S1131900F0E2EF16F3E0FF0621F464E082E040D257
S11319106EC1E11438E0F30621F461E083E038D2CB
S113192066C1E11489E0F80621F461E084E030D274
S11319305EC1E114EAE0FE0621F461E085E028D20C
S113194056C1E114FBE0FF0621F461E086E020D2F9
S11319504EC130E4E31638E0F30621F462E083E09C
S113196017D245C180E4E81689E0F80621F462E064
S113197084E00ED23CC1E0E4EE16EAE0FE0621F477
S113198062E085E005D233C1F0E9EF16F8E0FF0626
S113199021F464E083E0FCD12AC130E9E31639E0A4
S11319A0F30621F464E084E0F3D121C180E9E81670
S11319B08AE0F80621F464E085E0EAD118C1E0E9A0
S11319C0EE16EBE0FE0621F464E086E0E1D10FC1FF
S11319D0F0ECEF16F8E0FF0621F468E083E0D8D1DC
S11319E006C130ECE31639E0F30621F468E084E044
S11319F0CFD1FDC080EAE81688E0F80661F460E122
S1131A0083E0C6D1E0EAF8E084818F7E8483F80124
S1131A10248122504CC0F0EAEF16F9E0FF0621F4CD
S1131A2060E184E0B5D1E3C030EAE3163AE0F306BE
S1131A3021F460E185E0ACD1DAC080EAE8168BE0FD
S1131A40F80621F460E186E0A3D1D1C0E0EBEE1604
S1131A50E8E0FE0621F460E283E09AD1C8C0F0EB2E
S1131A60EF16F9E0FF0621F460E284E091D1BFC0F3
S1131A7030E8E31634E0F30621F460E483E088D12F
S1131A80B6C080EAE81684E0F80621F460E485E054
S1131A907FD1ADC0F70184818F7E8483FB012481D3
S1131AA02250C701F0EAEF16F8E0FF0649F48091EE
S1131AB04E0684FDA5C00F2EF1E1DF2EF02DA4C04B
S1131AC0803B38E0930791F0803AE9E09E0749F4BF
S1131AD030916E0634FD9BC00F2EF9E1DF2EF02D00
S1131AE016C0803BF9E09F07F1F004C00F2EF5E12A
S1131AF0DF2EF02D803A3AE0930749F480918E0668
S1131B0084FD8AC00F2EF1E2DF2EF02D15C0803A3D
S1131B109B4091F48091AE0684FD0AC00F2EF9E239
S1131B20DF2EF02D09C00F2EFDE1DF2EF02D04C0B5
S1131B300F2EFDE2DF2EF02DED2DE695E695E695D0
S1131B4030E2E39FF0011124FA5F3D2D377081E00C
S1131B5090E0032E02C0880F991F0A94E2F7818354
S1131B60223010F040E001C040E4DF015096A30FA2
S1131B70B11D9FB79983F89439812C9127702C93C8
S1131B809C91942B9C933FBF8583F7018581806C46
S1131B908583F80184818D7F813029F4F701858163
S1131BA08260858304C0F70185818D7F8583F80178
S1131BB08581882329F0F70185818460858304C0A9
S1131BC0F70185818B7F8583F80140815181628192
S1131BD0738100E012E12AE730E0C70116DEF70165
S1131BE08481886084838481806184831AC0F7013E
S1131BF084818F7E8483F80124812250C70160CFC1
S1131C000F2EF5E1DF2EF02D80EA98E06ACF0F2E3B
S1131C10FDE1DF2EF02D7BCF0F2EF5E2DF2EF02D30
S1131C208BCF0F90DF91CF911F910F91FF90EF9089
S1131C30DF900895803A28E0920721F460E183E080
S1131C40A7C00895803B28E0920721F460E283E076
S1131C509FC00895803A29E0920721F460E184E06E
S1131C6097C00895803B29E0920721F460E284E064
S1131C708FC00895803A2AE0920721F460E185E05C
S1131C8087C00895803A9B4019F460E186E080C0E3
S1131C9008950F931F93CF93DF9300D000D0CDB757
S1131CA0DEB709831A832B833C834D831E82BE01D6
S1131CB06F5F7F4FDBDD2696CDBFDEBFDF91CF9117
S1131CC01F910F910895FB018081E82FE695E69519
S1131CD0E69540E2E49FF0011124FA5F877021E069
S1131CE030E0A90102C0440F551F8A95E2F74683EC
S1131CF00895FB018081E82FE695E695E69540E29C
S1131D00E49FF0011124FA5F877021E030E0A9011B
S1131D1002C0440F551F8A95E2F745830895CF9377
S1131D20DF931F921F92CDB7DEB78FEF80937000C1
S1131D308093710080937200809373008093740089
S1131D4080937500809376006CE081E490E036D057
S1131D508FB78A83F8949A81E0E5F0E0808182600D
S1131D6080839FBF818181FFFDCF61E080E490E0AB
S1131D7025D08FB78983F8949981E0E5F0E08081DC
S1131D808E7F80839FBF0F900F90DF91CF91089536
S1131D90CF93DF931F92CDB7DEB79FB79983F894A3
S1131DA09981E82FF0E0E059FF4F60958081682326
S1131DB060839FBF0F90DF91CF9108951BBEFC01FC
S1131DC028ED24BF60830895CF92DF92EF92FF92B3
S1131DD0CF93DF93EC016B01E12CF12C60E072E115
S1131DE08AE790E0A7019601D6D4CA01B9012FEF82
S1131DF03FEF40E050E0CFD42115310529F481E0D4
S1131E008C8321E030E02DC02230310528F482E0BB
S1131E108C8322E030E025C02430310528F483E0AF
S1131E208C8324E030E01DC02830310528F484E0A0
S1131E308C8328E030E015C02034310528F485E097
S1131E408C8320E430E00DC02F3F310509F028F4E5
S1131E5086E08C8320E031E004C087E08C8320E0BE
S1131E6034E040E050E060E072E18AE790E093D42F
S1131E70CA01B901A70196018ED42D833E8324366D
S1131E80310518F41C821D821E82DF91CF91FF90D0
S1131E90EF90DF90CF9008950F931F93CF93DF932C
S1131EA0EC018901862F90E08730910508F08AC003
S1131EB0FC018827E250FF4F8F4F8FC480E098E0E9
S1131EC088839983E0E4F6E0308181E090E02FEFAD
S1131ED0240F02C0880F991F2A95E2F7832B808371
S1131EE071C080E498E088839983E0E4F6E030816F
S1131EF081E090E023E0240F02C0880F991F2A9507
S1131F00E2F7832B80835EC080E099E08883998325
S1131F10E0E6F6E0308181E090E02FEF240F02C08C
S1131F20880F991F2A95E2F7832B80834BC080E4A6
S1131F3099E088839983E0E6F6E0308181E090E0DF
S1131F4023E0240F02C0880F991F2A95E2F7832B00
S1131F50808338C080E09AE088839983E0E8F6E0E3
S1131F60308181E090E02FEF240F02C0880F991F89
S1131F702A95E2F7832B808325C080E49AE0888346
S1131F809983E0E8F6E0308181E090E023E0240FDB
S1131F9002C0880F991F2A95E2F7832B808312C011
S1131FA080E09BE088839983E0EAF6E0308181E079
S1131FB090E02FEF240F02C0880F991F2A95E2F7B3
S1131FC0832B80834A83423061F018F4413031F02E
S1131FD010C0433049F0443051F00BC080E18B8392
S1131FE008C080E28B8305C080E48B8302C080E854
S1131FF08B838881998166D9E881F9818181887F81
S1132000836081831D821E821C82E881F981808124
S1132010807F8083B801CE01D7DEDF91CF911F91FD
S11320200F910895CF93DF93EC012D813E81A62F6C
S1132030B0E0DBD324E630E040E050E0ACD38A816A
S1132040E881F981E6FD17C0823061F018F481302F
S113205031F01BC0833049F0843051F016C020AFFA
S113206031AF13C022AF33AF10C024AF35AF0DC0B2
S113207026AF37AF0AC0813019F0823021F005C095
S113208020AF31AF02C022AF33AF8D819E81E88192
S1132090F98186A397A38B81E881F981E6FD04C0C9
S11320A09181892B818304C091818073892B8183E1
S11320B0E881F9818081807F9C81892B8083DF91F5
S11320C0CF910895CF93DF93FC0120E030E0C62F39
S11320D0D0E0DE01022E02C0B595A7950A94E2F77E
S11320E0A0FD508B2F5F3F4F31962830310589F783
S11320F040FF0AC041FF03C0FC01658302C0FC012C
S11321006683FC01618302C0FC016283DF91CF918D
S1132110089543E050E061E080EE97E0D3DF43E0D0
S113212050E062E080EE97E0CDDF43E050E060E114
S113213080E696E0C7DF41E050E460E280E696E0A6
S1132140C1DF40E05BE160E280E896E0BBDF40E0B5
S11321505BE162E080EA96E0B5DF40E05BE164E0E9
S113216080EA96E0AFDF43E050E062E080E696E08C
S1132170A9DF43E050E068E080E696E0A3DF43E0B7
S113218050E068E080EA96E09DDF43E050E061E0E3
S113219080E696E097DF43E050E068E080E096E078
S11321A091DF41E050E060E180E896E08BDF43E0BE
S11321B050E062E080E696E085DF43E050E068E0CE
S11321C080E696E07FDF40E050E064E080E696E061
S11321D079DF43E050E060E180EA96E073DF40E0BD
S11321E050E061E080E096E06DDF40E050E064E0C4
S11321F080E096E067DF40E050E062E080E296E055
S113220061DF43E050E068E080E496E05BDF40E0BB
S113221050E064E080E496E055DF43E050E068E09D
S113222080E696E04FDF40E050E064E080E696E030
S113223049DF43E050E068E080E896E043DF40E0B7
S113224050E064E080E896E03DCF089504C061501A
S11322507109810991096115710581059105B9F724
S113226008957F928F929F92AF92BF92CF92DF9206
S1132270EF92FF920F931F93CF93DF931F92CDB7EB
S1132280DEB71092442280E00F2EFBE28F2EF02D59
S113229000EA19E00F2EF0E6EF2EF6E0FF2EF02D07
S11322A0AA24A394B02EC12E6894992496F88F7012
S11322B0806BD82E8982BE016F5F7F4FC80103DD1A
S11322C0F701A682F801818185FFFCCFD082F80155
S11322D0818186FFFCCF91828081BE016F5F7F4F39
S11322E0C80107DD10924322D12C8D2D8F77829562
S11322F08F708061782E8982BE016F5F7F4F8B2D36
S11323009C2DE1DCF701A682F801818185FFFCCFD9
S11323107082F801818186FFFCCF91828081BE01A9
S11323206F5F7F4F8B2D9C2DE4DCFD2DFF70DF2E26
S11323308982BE016F5F7F4F8B2D9C2DC4DCF7011A
S1132340A682F801818185FFFCCFD082F8018181CA
S113235086FFFCCF91828081BE016F5F7F4F8B2D02
S11323609C2DC7DC8982BE016F5F7F4F8B2D9C2D16
S1132370AADCF701A582F801818185FFFCCF1082D8
S1132380F801818186FFFCCF91828081F701A682CA
S1132390BE016F5F7F4F8B2D9C2DABDCD090432211
S11323A0D394D0924322DD200CF09FCF809144221D
S11323B08F5F80934422853008F479CF8BE2898340
S11323C0BE016F5F7F4F80EA99E07DDC81E08093FE
S11323D06606E0EAF9E0818185FFFDCF80EB80931A
S11323E0A009E0EAF9E0818186FFFDCFE0EAF9E0A7
S11323F080E481838081BE016F5F7F4F80EA99E032
S113240078DC8BE28983BE016F5F7F4F80EA99E0BD
S11324105ADC81E080936606E0EAF9E0818185FF79
S1132420FDCF80E18093A009E0EAF9E0818186FF95
S1132430FDCFE0EAF9E080E481838081BE016F5F33
S11324407F4F80EA99E055DC8BE28983BE016F5FA0
S11324507F4F80EA99E037DC81E080936606E0EA0A
S1132460F9E0818185FFFDCF1092A009E0EAF9E04F
S1132470818186FFFDCFE0EAF9E080E481838081F9
S1132480BE016F5F7F4F80EA99E033DC0F90DF91EC
S1132490CF911F910F91FF90EF90DF90CF90BF905D
S11324A0AF909F908F907F9008956F927F928F92BC
S11324B09F92AF92BF92CF92DF92EF92FF920F93CF
S11324C01F93CF93DF931F92CDB7DEB7182F80E110
S11324D080938606153209F0EDC08091202298E0A1
S11324E0980F9093202207E0080F0F7300648BE28B
S11324F08983BE016F5F7F4F80EA99E0E4DB81E06E
S113250080936606E0EAF9E0818185FFFDCF0093C0
S1132510A009E0EAF9E0818186FFFDCFE0EAF9E075
S113252080E481838081BE016F5F7F4F80EA99E000
S1132530E0DB8BE28983BE016F5F7F4F80EA99E025
S1132540C2DB81E080936606E0EAF9E0818185FFE1
S1132550FDCF80E18093A009E0EAF9E0818186FF64
S1132560FDCFE0EAF9E080E481838081BE016F5F02
S11325707F4F80EA99E0BDDB8BE28983BE016F5F08
S11325807F4F80EA99E09FDB81E080936606E0EA72
S1132590F9E0818185FFFDCF1092A009E0EAF9E01E
S11325A0818186FFFDCFE0EAF9E080E481838081C8
S11325B0BE016F5F7F4F80EA99E09BDB80914422EC
S11325C08F5F809344228F70082F006B8BE2898386
S11325D0BE016F5F7F4F80EA99E075DB81E08093F5
S11325E06606E0EAF9E0818185FFFDCF0093A0094A
S11325F0E0EAF9E0818186FFFDCFE0EAF9E080E4DA
S113260081838081BE016F5F7F4F80EA99E071DB37
S113261002C027DE46C0812F90E06C01CC0CDD1C8B
S11326208C0D9D1D880F991F880F991F9C012D5A91
S11326303E4D7901FC01E15AFE4D6F010F2EFBE284
S11326406F2EF02D00EA19E00F2EF0E6AF2EF6E023
S1132650BF2EF02D992493946894772476F8F7018B
S11326608080F2E0EF0EF11C6982BE016F5F7F4F44
S1132670C80129DBF5019582F801818185FFFCCF32
S11326808082F801818186FFFCCF71828081F5010F
S11326909682BE016F5F7F4FC8012BDBEC14FD04F3
S11326A0F1F666ED78E082E090E0D0DD80E18093A1
S11326B0850604C0143609F0AECFABCF0F90DF917E
S11326C0CF911F910F91FF90EF90DF90CF90BF902B
S11326D0AF909F908F907F906F900895CF93DF93EA
S11326E0CDB7DEB76497CDBFDEBF13DD18DB80E165
S11326F0809385060E94320122E330E041E064E0E9
S113270087E292E2C9DBADDD60E070E280EA98E046
S11327100E94F40A84E1E7E0F0E2DE011196019000
S11327200D928A95E1F78E010F5F1F4F7E0181E8BC
S1132730E80EF11CF80161918F0180EA98E00E9493
S1132740D3090E151F05B1F780EA98E00E94DB0952
S11327508823D1F3AADE62E087E292E263DC6BEACB
S113276070EB88E290E072DD60E087E292E25ADC8E
S11327706BEA79EB85E690E069DD67E087E292E257
S113278051DC6BEA70EB88E290E060DD60E087E2A8
S113279092E248DCD9CFA1E21A2EAA1BBB1BFD0191
S11327A00DC0AA1FBB1FEE1FFF1FA217B307E4072C
S11327B0F50720F0A21BB30BE40BF50B661F771F84
S11327C0881F991F1A9469F7609570958095909564
S11327D09B01AC01BD01CF010895EE0FFF1F881FBF
S11327E08BBF0790F691E02D1994A29FB001B39F7F
S11327F0C001A39F700D811D1124911DB29F700D06
S10F2800811D1124911D0895F894FFCF50
S113280C802500000300000A0D456E74657220617A
S113281C206D6573736167653A20007E00090009B9
S113282C0009007E0000007F0049004900360000CA
S113283C0000003E00410041004100000000007F08
S113284C004100410041003E0000007F0049004966
S113285C004900000000007F000900090009000085
S113286C0000003F00410049007900000000007F97
S113287C000800080008007F000000000041007FF1
S113288C00410000000000600041007F00010000D6
S113289C0000007F00080004000A00710000007FA3
S11328AC00400040004000000000007F00020004D3
S11328BC0002007F0000007F000200040008007F7B
S11328CC0000003E004100410041003E0000007F3A
S11328DC00090009000900060000003E00410061E7
S11328EC007E00800000007F0009001900290046CA
S11328FC0000004600490049004900310000000175
S113290C0001007F000100010000003F0040004076
S113291C003F0000000000070018006000180007CA
S113292C0000007F008000700080007F00000063C6
S113293C0014000800140063000000030004007875
S113294C00040003000000310029002500230021AD
S113295C0000000000000000000000000000004225
S113296C007F004000000000000000620051004D98
S113297C00460000000000410045004B00310000FF
S113298C0000003C0022007F0020000000000047F3
S113299C00450045003900000000007E0049004954
S11329AC0031000000000001007900050003000064
S11329BC0000003E00490049003E000000000006F3
S11329CC00090009007F00000000007F0041004165
S10B29DC007F00000000000070
S9030000FC
