:10000000FDC000001CC100001AC1000018C10000A2
:1000100016C1000014C1000012C1000010C1000090
:100020000EC100000CC100000AC1000008C10000A0
:1000300006C1000004C1000002C1000000C10000B0
:10004000FEC00000FCC00000FAC00000F8C00000C4
:10005000F6C00000F4C00000F2C00000F0C00000D4
:10006000EEC00000ECC00000EAC00000E8C00000E4
:10007000E6C00000E4C00000E2C00000E0C00000F4
:10008000DEC00000DCC00000DAC00000D8C0000004
:10009000D6C00000D4C00000D2C00000D0C0000014
:1000A000CEC00000CCC00000CAC00000C8C0000024
:1000B000C6C00000C4C00000C2C00000C0C0000034
:1000C000BEC00000BCC00000BAC00000B8C0000044
:1000D000B6C00000B4C00000B2C00000B0C0000054
:1000E000AEC00000ACC00000AAC00000A8C0000064
:1000F000A6C00000A4C00000A2C00000A0C0000074
:100100009EC000009CC000009AC0000098C0000083
:1001100096C0000094C0000092C0000090C0000093
:100120008EC000008CC000008AC0000088C00000A3
:1001300086C0000084C0000082C0000080C00000B3
:100140007EC000007CC000007AC0000078C00000C3
:1001500076C0000074C0000072C0000070C00000D3
:100160006EC000006CC000006AC0000068C00000E3
:1001700066C0000064C0000062C0000060C00000F3
:100180005EC000005CC000005AC0000058C0000003
:1001900056C0000054C0000052C0000050C0000013
:1001A0004EC000004CC000004AC0000048C0000023
:1001B00046C0000044C0000042C0000040C0000033
:1001C0003EC000003CC000003AC0000038C0000043
:1001D00036C0000034C0000032C0000030C0000053
:1001E0002EC000002CC000002AC0000028C0000063
:1001F00026C0000024C0000022C0000011241FBE41
:10020000CFEFCDBFDFE5DEBF00E00CBF10E2A0E026
:10021000B0E2E0E6F6E100E00BBF02C007900D920D
:10022000AE32B107D9F720E2AEE2B0E201C01D92D2
:10023000A133B207E1F70E94D70A0C942E0BE0CE4F
:1002400004C0615071098109910961157105810529
:100250009105B9F70895BF92CF92DF92EF92FF9286
:100260000F931F93CF93DF931F92CDB7DEB700E0BC
:1002700016E06894FF24F3F8F801F6826EE070E06F
:1002800080E090E0DDDFF801F5826EE070E080E074
:1002900090E0D6DF0F2EFBE2BF2EF02DB98280EA70
:1002A00099E0E0D5C12CD12C760100E412E42FE0D6
:1002B00030E043E0BE016F5F7F4F80EA99E001D6F6
:1002C00000E616E0FF24F394F801F682B982BE013D
:1002D0006F5F7F4F80EA99E00ED6F801F682E0EA80
:1002E000F9E0818185FFFDCF80EA8093A009E0EAF3
:1002F000F9E0818186FFFDCFE0EAF9E080E48183C7
:100300008081BE016F5F7F4F80EA99E00AD68BE261
:100310008983BE016F5F7F4F80EA99E0ECD581E071
:1003200080936606E0EAF9E0818185FFFDCF86EAE9
:100330008093A009E0EAF9E0818186FFFDCFE0EA41
:10034000F9E080E481838081BE016F5F7F4F80EAA6
:1003500099E0E7D58BE28983BE016F5F7F4F80EA2A
:1003600099E0C9D581E080936606E0EAF9E08181F1
:1003700085FFFDCF88EC8093A009E0EAF9E0818158
:1003800086FFFDCFE0EAF9E080E481838081BE0151
:100390006F5F7F4F80EA99E0C4D58BE28983BE010D
:1003A0006F5F7F4F80EA99E0A6D581E08093660673
:1003B000E0EAF9E0818185FFFDCF82EA8093A00920
:1003C000E0EAF9E0818186FFFDCFE0EAF9E080E430
:1003D00081838081BE016F5F7F4F80EA99E0A1D564
:1003E0008BE28983BE016F5F7F4F80EA99E083D5FE
:1003F00081E080936606E0EAF9E0818185FFFDCF28
:100400008FE28093A009E0EAF9E0818186FFFDCFC9
:10041000E0EAF9E080E481838081BE016F5F7F4F75
:1004200080EA99E07ED58BE28983BE016F5F7F4FC2
:1004300080EA99E060D581E080936606E0EAF9E021
:10044000818185FFFDCF88EF8093A009E0EAF9E084
:10045000818186FFFDCFE0EAF9E080E4818380813D
:10046000BE016F5F7F4F80EA99E05BD58BE28983A5
:10047000BE016F5F7F4F80EA99E03DD581E08093B8
:100480006606E0EAF9E0818185FFFDCF1092A009C0
:10049000E0EAF9E0818186FFFDCFE0EAF9E080E45F
:1004A00081838081BE016F5F7F4F80EA99E039D5FB
:1004B0008BE28983BE016F5F7F4F80EA99E01BD595
:1004C00081E080936606E0EAF9E0818185FFFDCF57
:1004D00081E28093A009E0EAF9E0818186FFFDCF07
:1004E000E0EAF9E080E481838081BE016F5F7F4FA5
:1004F00080EA99E016D58BE28983BE016F5F7F4F5A
:1005000080EA99E0F8D481E080936606E0EAF9E0B9
:10051000818185FFFDCF81E88093A009E0EAF9E0C1
:10052000818186FFFDCFE0EAF9E080E4818380816C
:10053000BE016F5F7F4F80EA99E0F3D48BE289833D
:10054000BE016F5F7F4F80EA99E0D5D481E0809350
:100550006606E0EAF9E0818185FFFDCF81E28093C4
:10056000A009E0EAF9E0818186FFFDCFE0EAF9E049
:1005700080E481838081BE016F5F7F4F80EA99E0D4
:10058000D0D48BE28983BE016F5F7F4F80EA99E010
:10059000B2D481E080936606E0EAF9E0818185FFCC
:1005A000FDCF8FEA8093A009E0EAF9E0818186FF20
:1005B000FDCFE0EAF9E080E481838081BE016F5FD6
:1005C0007F4F80EA99E0ADD40F90DF91CF911F91DA
:1005D0000F91FF90EF90DF90CF90BF900895FC01B6
:1005E000918195FFFDCF608380E090E00895FC014C
:1005F00091819923ECF7808108954F925F926F92D9
:100600007F928F929F92AF92BF92EF92FF920F9341
:100610001F93CF937C014A015B0128013901FC0142
:10062000848182FF16C0D901C801689412F8B6957A
:10063000A795979587951694D1F7B901A801032E30
:1006400036E176956795579547953A95D1F7302DD0
:1006500015C0D901C801689413F8B695A795979568
:1006600087951694D1F7B901A801032E37E1769545
:100670006795579547953A95D1F7302D8815990587
:10068000AA05BB0508F4A2C084169506A606B706FF
:1006900008F49EC0F701848182FD04C0880C991C77
:1006A000AA1CBB1CC301B201A5019401B5D72F3F01
:1006B00031054105510508F48DC08FEF90E0A0E0B1
:1006C000B0E0C9EF05C0281739074A075B0758F0A3
:1006D000880F991FAA1FBB1FCD3F0CF48160CF5F0D
:1006E000C73089F74DC0CC230CF04AC0D501C401F6
:1006F000880F991FAA1FBB1F880F991FAA1FBB1F16
:10070000880F991FAA1FBB1F481A590A6A0A7B0A39
:10071000CE3FECF48DEF9FEF8C1B9109C7FD9395B5
:1007200004C0440C551C661C771C8A95D2F7D50171
:10073000C401B695A79597958795BC01CD01640D29
:10074000751D861D971DA501940166D735C083E0F0
:100750008C0FA501940104C0220F331F441F551FA5
:100760008A95D2F7DA01C901B695A795979587952D
:10077000BC01CD01640D751D861D971D4DD71CC094
:1007800083E08C0FA501940104C0220F331F441F86
:10079000551F8A95D2F7DA01C901B695A7959795A5
:1007A0008795BC01CD01640D751D861D971D34D73D
:1007B0002150310941095109832F8F70C295C07FA3
:1007C000C82BF701C783268381E018C080E016C0DC
:1007D00080E014C0D501C401880F991FAA1FBB1F58
:1007E000880F991FAA1FBB1F880F991FAA1FBB1F25
:1007F000481A590A6A0A7B0AC9EF8CCFCF911F9118
:100800000F91FF90EF90BF90AF909F908F907F904F
:100810006F905F904F9008950F931F93CF93DF9346
:10082000EC018B01009709F4E6C0803C910521F4AE
:1008300060E180E0C5D3DFC0C03881E0D80721F493
:1008400062E080E0BDD3D7C0C115E1E0DE0721F44E
:1008500061E080E0B5D3CFC0C038F3E0DF0721F41A
:1008600061E081E0ADD3C7C0C03983E0D80721F48F
:1008700061E082E0A5D3BFC0C115E2E0DE0721F44C
:1008800062E081E09DD3B7C0C034F2E0DF0721F41D
:1008900062E082E095D3AFC0C03283E0D80721F494
:1008A00064E082E08DD3A7C0C115E8E0DE0721F443
:1008B00061E083E085D39FC0C115F9E0DF0721F433
:1008C00061E084E07DD397C0C1158AE0D80721F4A8
:1008D00061E085E075D38FC0C115EBE0DE0721F440
:1008E00061E086E06DD387C0C034F8E0DF0721F413
:1008F00062E083E065D37FC0C03489E0D80721F48B
:1009000062E084E05DD377C0C034EAE0DE0721F422
:1009100062E085E055D36FC0C039F8E0DF0721F40D
:1009200064E083E04DD367C0C03989E0D80721F483
:1009300064E084E045D35FC0C039EAE0DE0721F41B
:1009400064E085E03DD357C0C039FBE0DF0721F408
:1009500064E086E035D34FC0C03C88E0D80721F47E
:1009600068E083E02DD347C0C03CE9E0DE0721F416
:1009700068E084E025D33FC0C03AF8E0DF0721F407
:1009800060E183E01DD337C0C03A89E0D80721F485
:1009900060E184E015D32FC0C03AEAE0DE0721F41D
:1009A00060E185E00DD327C0C03AFBE0DF0721F40A
:1009B00060E186E005D31FC0C03B88E0D80721F482
:1009C00060E283E0FDD217C0C03BE9E0DE0721F41E
:1009D00060E284E0F5D20FC0C038F4E0DF0721F414
:1009E00060E483E0EDD207C0C03A84E0D80719F490
:1009F00060E485E0E5D28D818F738D83F801958168
:100A00008481892B9681911198E0892B8D83F8013F
:100A1000408151816281738100E012E12AE730E078
:100A2000CE01EBDD9C8198609C839C8190619C83CE
:100A3000DF91CF911F910F910895CF92DF92EF92A6
:100A4000FF920F931F93CF93DF93EC01D901C8015D
:100A5000B695A79597958795481759076A077B0715
:100A600070F46A017B01CC0CDD1CEE1CFF1CC9017B
:100A7000B801A7019601D0D52150310902C020E06C
:100A800030E0832F8F708F832E83DF91CF911F9162
:100A90000F91FF90EF90DF90CF900895DF92EF924B
:100AA000FF920F931F93CF93DF931F92CDB7DEB7C3
:100AB0007C018B01009709F4B2C1803C910521F4BF
:100AC00060E180E07DD2ABC180E8E81681E0F80605
:100AD00021F462E080E074D2A2C1E114E1E0FE06FC
:100AE00021F461E080E06CD29AC1F0E8EF16F3E007
:100AF000FF0621F461E081E063D291C130E9E316A1
:100B000033E0F30621F461E082E05AD288C1E114B7
:100B100082E0F80621F462E081E052D280C1E0E494
:100B2000EE16E2E0FE0621F462E082E049D277C1EF
:100B3000F0E2EF16F3E0FF0621F464E082E040D239
:100B40006EC1E11438E0F30621F461E083E038D2AD
:100B500066C1E11489E0F80621F461E084E030D256
:100B60005EC1E114EAE0FE0621F461E085E028D2EE
:100B700056C1E114FBE0FF0621F461E086E020D2DB
:100B80004EC130E4E31638E0F30621F462E083E07E
:100B900017D245C180E4E81689E0F80621F462E046
:100BA00084E00ED23CC1E0E4EE16EAE0FE0621F459
:100BB00062E085E005D233C1F0E9EF16F8E0FF0608
:100BC00021F464E083E0FCD12AC130E9E31639E086
:100BD000F30621F464E084E0F3D121C180E9E81652
:100BE0008AE0F80621F464E085E0EAD118C1E0E982
:100BF000EE16EBE0FE0621F464E086E0E1D10FC1E1
:100C0000F0ECEF16F8E0FF0621F468E083E0D8D1BD
:100C100006C130ECE31639E0F30621F468E084E025
:100C2000CFD1FDC080EAE81688E0F80661F460E103
:100C300083E0C6D1E0EAF8E084818F7E8483F80106
:100C4000248122504CC0F0EAEF16F9E0FF0621F4AF
:100C500060E184E0B5D1E3C030EAE3163AE0F306A0
:100C600021F460E185E0ACD1DAC080EAE8168BE0DF
:100C7000F80621F460E186E0A3D1D1C0E0EBEE16E6
:100C8000E8E0FE0621F460E283E09AD1C8C0F0EB10
:100C9000EF16F9E0FF0621F460E284E091D1BFC0D5
:100CA00030E8E31634E0F30621F460E483E088D111
:100CB000B6C080EAE81684E0F80621F460E485E036
:100CC0007FD1ADC0F70184818F7E8483FB012481B5
:100CD0002250C701F0EAEF16F8E0FF0649F48091D0
:100CE0004E0684FDA5C00F2EF1E1DF2EF02DA4C02D
:100CF000803B38E0930791F0803AE9E09E0749F4A1
:100D000030916E0634FD9BC00F2EF9E1DF2EF02DE1
:100D100016C0803BF9E09F07F1F004C00F2EF5E10B
:100D2000DF2EF02D803A3AE0930749F480918E0649
:100D300084FD8AC00F2EF1E2DF2EF02D15C0803A1F
:100D40009B4091F48091AE0684FD0AC00F2EF9E21B
:100D5000DF2EF02D09C00F2EFDE1DF2EF02D04C097
:100D60000F2EFDE2DF2EF02DED2DE695E695E695B2
:100D700030E2E39FF0011124FA5F3D2D377081E0EE
:100D800090E0032E02C0880F991F0A94E2F7818336
:100D9000223010F040E001C040E4DF015096A30F84
:100DA000B11D9FB79983F89439812C9127702C93AA
:100DB0009C91942B9C933FBF8583F7018581806C28
:100DC0008583F80184818D7F813029F4F701858145
:100DD0008260858304C0F70185818D7F8583F8015A
:100DE0008581882329F0F70185818460858304C08B
:100DF000F70185818B7F8583F80140815181628174
:100E0000738100E012E12AE730E0C70116DEF70146
:100E10008481886084838481806184831AC0F7011F
:100E200084818F7E8483F80124812250C70160CFA2
:100E30000F2EF5E1DF2EF02D80EA98E06ACF0F2E1D
:100E4000FDE1DF2EF02D7BCF0F2EF5E2DF2EF02D12
:100E50008BCF0F90DF91CF911F910F91FF90EF906B
:100E6000DF900895803A28E0920721F460E183E062
:100E7000A7C00895803B28E0920721F460E283E058
:100E80009FC00895803A29E0920721F460E184E050
:100E900097C00895803B29E0920721F460E284E046
:100EA0008FC00895803A2AE0920721F460E185E03E
:100EB00087C00895803A9B4019F460E186E080C0C5
:100EC00008950F931F93CF93DF9300D000D0CDB739
:100ED000DEB709831A832B833C834D831E82BE01B8
:100EE0006F5F7F4FDBDD2696CDBFDEBFDF91CF91F9
:100EF0001F910F910895FB018081E82FE695E695FB
:100F0000E69540E2E49FF0011124FA5F877021E04A
:100F100030E0A90102C0440F551F8A95E2F74683CD
:100F20000895FB018081E82FE695E695E69540E27D
:100F3000E49FF0011124FA5F877021E030E0A901FD
:100F400002C0440F551F8A95E2F745830895CF9359
:100F5000DF931F921F92CDB7DEB78FEF80937000A3
:100F6000809371008093720080937300809374006B
:100F700080937500809376006CE081E490E036D039
:100F80008FB78A83F8949A81E0E5F0E080818260EF
:100F900080839FBF818181FFFDCF61E080E490E08D
:100FA00025D08FB78983F8949981E0E5F0E08081BE
:100FB0008E7F80839FBF0F900F90DF91CF91089518
:100FC000CF93DF931F92CDB7DEB79FB79983F89485
:100FD0009981E82FF0E0E059FF4F60958081682308
:100FE00060839FBF0F90DF91CF9108951BBEFC01DE
:100FF00028ED24BF60830895CF93DF93FC0120E0A8
:1010000030E0C62FD0E0DE01022E02C0B595A795D4
:101010000A94E2F7A0FD508B2F5F3F4F31962830A6
:10102000310589F740FF0AC041FF03C0FC01658319
:1010300002C0FC016683FC01618302C0FC01628383
:10104000DF91CF91089543E050E061E080EE97E0BA
:10105000D3DF43E050E062E080EE97E0CDDF43E095
:1010600050E060E180E696E0C7DF41E050E460E2F6
:1010700080E696E0C1DF40E05BE160E280E896E078
:10108000BBDF40E05BE162E080EA96E0B5DF40E094
:101090005BE164E080EA96E0AFDF43E050E062E0CD
:1010A00080E696E0A9DF43E050E068E080E696E065
:1010B000A3DF43E050E068E080EA96E09DDF43E094
:1010C00050E061E080E696E097DF43E050E068E0C2
:1010D00080E096E091DF41E050E060E180E896E05A
:1010E0008BDF43E050E062E080E696E085DF43E09E
:1010F00050E068E080E696E07FDF40E050E064E0AA
:1011000080E696E079DF43E050E060E180EA96E037
:1011100073DF40E050E061E080E096E06DDF40E0AA
:1011200050E064E080E096E067DF40E050E062E09D
:1011300080E296E061DF43E050E068E080E496E022
:101140005BDF40E050E064E080E496E055DF43E0A0
:1011500050E068E080E696E04FDF40E050E064E079
:1011600080E696E049DF43E050E068E080E896E002
:1011700043DF40E050E064E080E896E03DCF089532
:1011800004C06150710981099109611571058105DA
:101190009105B9F708957F928F929F92AF92BF9277
:1011A000CF92DF92EF92FF920F931F93CF93DF9333
:1011B0001F92CDB7DEB71092302080E00F2EFBE2F9
:1011C0008F2EF02D00EA19E00F2EF0E6EF2EF6E05C
:1011D000FF2EF02DAA24A394B02EC12E689499243A
:1011E00096F88F70806BD82E8982BE016F5F7F4F1B
:1011F000C80181DEF701A682F801818185FFFCCF5D
:10120000D082F801818186FFFCCF91828081BE016E
:101210006F5F7F4FC80185DE10922F20D12C8D2D5E
:101220008F7782958F708061782E8982BE016F5F83
:101230007F4F8B2D9C2D5FDEF701A682F801818107
:1012400085FFFCCF7082F801818186FFFCCF9182FF
:101250008081BE016F5F7F4F8B2D9C2D62DEFD2D47
:10126000FF70DF2E8982BE016F5F7F4F8B2D9C2D1B
:1012700042DEF701A682F801818185FFFCCFD08292
:10128000F801818186FFFCCF91828081BE016F5F72
:101290007F4F8B2D9C2D45DE8982BE016F5F7F4F76
:1012A0008B2D9C2D28DEF701A582F801818185FF19
:1012B000FCCF1082F801818186FFFCCF9182808172
:1012C000F701A682BE016F5F7F4F8B2D9C2D29DE1B
:1012D000D0902F20D394D0922F20DD200CF09FCFE0
:1012E000809130208F5F80933020853008F479CF53
:1012F0008BE28983BE016F5F7F4F80EA99E0FBDD5F
:1013000081E080936606E0EAF9E0818185FFFDCF08
:1013100080EB8093A009E0EAF9E0818186FFFDCFB0
:10132000E0EAF9E080E481838081BE016F5F7F4F56
:1013300080EA99E0F6DD8BE28983BE016F5F7F4F23
:1013400080EA99E0D8DD81E080936606E0EAF9E082
:10135000818185FFFDCF80E18093A009E0EAF9E07B
:10136000818186FFFDCFE0EAF9E080E4818380811E
:10137000BE016F5F7F4F80EA99E0D3DD8BE2898306
:10138000BE016F5F7F4F80EA99E0B5DD81E0809319
:101390006606E0EAF9E0818185FFFDCF1092A009A1
:1013A000E0EAF9E0818186FFFDCFE0EAF9E080E440
:1013B00081838081BE016F5F7F4F80EA99E0B1DD5C
:1013C0000F90DF91CF911F910F91FF90EF90DF90E1
:1013D000CF90BF90AF909F908F907F9008950F9384
:1013E0001F93CF93DF931F92CDB7DEB7182F80E105
:1013F00080938606153209F09CC080912E2098E0DB
:10140000980F90932E2007E0080F0F7300648BE273
:101410008983BE016F5F7F4F80EA99E06CDD81E0D8
:1014200080936606E0EAF9E0818185FFFDCF0093B5
:10143000A009E0EAF9E0818186FFFDCFE0EAF9E06A
:1014400080E481838081BE016F5F7F4F80EA99E0F5
:1014500068DD8BE28983BE016F5F7F4F80EA99E090
:101460004ADD81E080936606E0EAF9E0818185FF4C
:10147000FDCF80E18093A009E0EAF9E0818186FF59
:10148000FDCFE0EAF9E080E481838081BE016F5FF7
:101490007F4F80EA99E045DD8BE28983BE016F5F73
:1014A0007F4F80EA99E027DD81E080936606E0EADD
:1014B000F9E0818185FFFDCF1092A009E0EAF9E013
:1014C000818186FFFDCFE0EAF9E080E481838081BD
:1014D000BE016F5F7F4F80EA99E023DD809130206D
:1014E0008F5F809330208F70082F006B8BE2898391
:1014F000BE016F5F7F4F80EA99E0FDDC81E0809361
:101500006606E0EAF9E0818185FFFDCF0093A0093E
:10151000E0EAF9E0818186FFFDCFE0EAF9E080E4CE
:1015200081838081BE016F5F7F4F80EA99E0F9DCA3
:1015300004C0143611F42FDE2CC0E12FF0E0EE0FC2
:10154000FF1FE55EFF4D10818BE28983BE016F5F57
:101550007F4F80EA99E0CFDC81E080936506E0EA86
:10156000F9E0818185FFFDCF1093A009E0EAF9E061
:10157000818186FFFDCFE0EAF9E080E4818380810C
:1015800081E080936606BE016F5F7F4F80EA99E03D
:10159000C8DC66ED78E082E090E0F2DD80E18093E7
:1015A00085060F90DF91CF911F910F910895CF93F2
:1015B000DF93CDB7DEB76497CDBFDEBF44DDC7DCB8
:1015C00080E1809385060E942B01E5DD60E070E2FA
:1015D00080EA98E021D984E1E7E0F0E2DE011196AB
:1015E00001900D928A95E1F78E010F5F1F4F7E01EA
:1015F00081E8E80EF11CF80161918F0180EA98E022
:101600000E94EF020E151F05B1F780EA98E00E94D4
:10161000F70280E0E4DEF9CFA1E21A2EAA1BBB1B81
:10162000FD010DC0AA1FBB1FEE1FFF1FA217B307AE
:10163000E407F50720F0A21BB30BE40BF50B661FC4
:10164000771F881F991F1A9469F760957095809588
:1016500090959B01AC01BD01CF010895F894FFCF97
:10166000802500000300000A0D456E74657220613C
:10167000206D6573736167653A2000300031003278
:0E16800000330034003500360037003800001B
:00000001FF
